{
  "contractName": "todolist",
  "abi": [
    {
      "inputs": [
        {
          "internalType": "uint256",
          "name": "",
          "type": "uint256"
        }
      ],
      "name": "tasks",
      "outputs": [
        {
          "internalType": "uint256",
          "name": "id",
          "type": "uint256"
        },
        {
          "internalType": "string",
          "name": "taskname",
          "type": "string"
        },
        {
          "internalType": "uint256",
          "name": "createdon",
          "type": "uint256"
        },
        {
          "internalType": "uint256",
          "name": "deadline",
          "type": "uint256"
        },
        {
          "internalType": "bool",
          "name": "completed",
          "type": "bool"
        }
      ],
      "stateMutability": "view",
      "type": "function",
      "constant": true
    },
    {
      "inputs": [
        {
          "internalType": "string",
          "name": "_taskname",
          "type": "string"
        },
        {
          "internalType": "uint256",
          "name": "_deadline",
          "type": "uint256"
        }
      ],
      "name": "createTask",
      "outputs": [
        {
          "internalType": "bool",
          "name": "",
          "type": "bool"
        }
      ],
      "stateMutability": "nonpayable",
      "type": "function"
    },
    {
      "inputs": [
        {
          "internalType": "uint256",
          "name": "_id",
          "type": "uint256"
        }
      ],
      "name": "tomarkcompleted",
      "outputs": [
        {
          "internalType": "bool",
          "name": "",
          "type": "bool"
        }
      ],
      "stateMutability": "nonpayable",
      "type": "function"
    },
    {
      "inputs": [
        {
          "internalType": "uint256",
          "name": "_id",
          "type": "uint256"
        }
      ],
      "name": "deletetask",
      "outputs": [
        {
          "internalType": "bool",
          "name": "",
          "type": "bool"
        }
      ],
      "stateMutability": "nonpayable",
      "type": "function"
    },
    {
      "inputs": [
        {
          "internalType": "uint256",
          "name": "_id",
          "type": "uint256"
        },
        {
          "internalType": "uint256",
          "name": "_newdeadline",
          "type": "uint256"
        }
      ],
      "name": "updateDeadline",
      "outputs": [
        {
          "internalType": "bool",
          "name": "",
          "type": "bool"
        }
      ],
      "stateMutability": "nonpayable",
      "type": "function"
    }
  ],
  "bytecode": "0x608060405234801561001057600080fd5b50610c73806100206000396000f3fe608060405234801561001057600080fd5b50600436106100575760003560e01c806304fe2b341461005c5780631f418aaa1461008c57806356b731a7146100bc578063899b184f146100ec5780638d9776721461011c575b600080fd5b61007660048036038101906100719190610803565b610150565b6040516100839190610913565b60405180910390f35b6100a660048036038101906100a19190610857565b610237565b6040516100b39190610913565b60405180910390f35b6100d660048036038101906100d19190610857565b610294565b6040516100e39190610913565b60405180910390f35b61010660048036038101906101019190610880565b61040f565b6040516101139190610913565b60405180910390f35b61013660048036038101906101319190610857565b6105a7565b60405161014795949392919061092e565b60405180910390f35b600080600081548092919061016490610b3f565b91905055506000620151808361017a9190610a5b565b426101859190610a05565b905061018f610672565b84816020018190525060005481600001818152505042816040018181525050818160600181815250508060016000805481526020019081526020016000206000820151816000015560208201518160010190805190602001906101f39291906106a3565b50604082015181600201556060820151816003015560808201518160040160006101000a81548160ff02191690831515021790555090505060019250505092915050565b6000600160008381526020019081526020016000206000808201600090556001820160006102659190610729565b600282016000905560038201600090556004820160006101000a81549060ff0219169055505060019050919050565b600080600160008481526020019081526020016000206040518060a0016040529081600082015481526020016001820180546102cf90610b0d565b80601f01602080910402602001604051908101604052809291908181526020018280546102fb90610b0d565b80156103485780601f1061031d57610100808354040283529160200191610348565b820191906000526020600020905b81548152906001019060200180831161032b57829003601f168201915b5050505050815260200160028201548152602001600382015481526020016004820160009054906101000a900460ff1615151515815250509050600181608001901515908115158152505080600160008581526020019081526020016000206000820151816000015560208201518160010190805190602001906103cd9291906106a3565b50604082015181600201556060820151816003015560808201518160040160006101000a81548160ff0219169083151502179055509050506001915050919050565b600080600160008581526020019081526020016000206040518060a00160405290816000820154815260200160018201805461044a90610b0d565b80601f016020809104026020016040519081016040528092919081815260200182805461047690610b0d565b80156104c35780601f10610498576101008083540402835291602001916104c3565b820191906000526020600020905b8154815290600101906020018083116104a657829003601f168201915b5050505050815260200160028201548152602001600382015481526020016004820160009054906101000a900460ff16151515158152505090506000620151808461050e9190610a5b565b826060015161051d9190610a05565b90508082606001818152505081600160008781526020019081526020016000206000820151816000015560208201518160010190805190602001906105639291906106a3565b50604082015181600201556060820151816003015560808201518160040160006101000a81548160ff02191690831515021790555090505060019250505092915050565b60016020528060005260406000206000915090508060000154908060010180546105d090610b0d565b80601f01602080910402602001604051908101604052809291908181526020018280546105fc90610b0d565b80156106495780601f1061061e57610100808354040283529160200191610649565b820191906000526020600020905b81548152906001019060200180831161062c57829003601f168201915b5050505050908060020154908060030154908060040160009054906101000a900460ff16905085565b6040518060a00160405280600081526020016060815260200160008152602001600081526020016000151581525090565b8280546106af90610b0d565b90600052602060002090601f0160209004810192826106d15760008555610718565b82601f106106ea57805160ff1916838001178555610718565b82800160010185558215610718579182015b828111156107175782518255916020019190600101906106fc565b5b5090506107259190610769565b5090565b50805461073590610b0d565b6000825580601f106107475750610766565b601f0160209004906000526020600020908101906107659190610769565b5b50565b5b8082111561078257600081600090555060010161076a565b5090565b6000610799610794846109b9565b610988565b9050828152602081018484840111156107b157600080fd5b6107bc848285610acb565b509392505050565b600082601f8301126107d557600080fd5b81356107e5848260208601610786565b91505092915050565b6000813590506107fd81610c26565b92915050565b6000806040838503121561081657600080fd5b600083013567ffffffffffffffff81111561083057600080fd5b61083c858286016107c4565b925050602061084d858286016107ee565b9150509250929050565b60006020828403121561086957600080fd5b6000610877848285016107ee565b91505092915050565b6000806040838503121561089357600080fd5b60006108a1858286016107ee565b92505060206108b2858286016107ee565b9150509250929050565b6108c581610ab5565b82525050565b60006108d6826109e9565b6108e081856109f4565b93506108f0818560208601610ada565b6108f981610c15565b840191505092915050565b61090d81610ac1565b82525050565b600060208201905061092860008301846108bc565b92915050565b600060a0820190506109436000830188610904565b818103602083015261095581876108cb565b90506109646040830186610904565b6109716060830185610904565b61097e60808301846108bc565b9695505050505050565b6000604051905081810181811067ffffffffffffffff821117156109af576109ae610be6565b5b8060405250919050565b600067ffffffffffffffff8211156109d4576109d3610be6565b5b601f19601f8301169050602081019050919050565b600081519050919050565b600082825260208201905092915050565b6000610a1082610ac1565b9150610a1b83610ac1565b9250827fffffffffffffffffffffffffffffffffffffffffffffffffffffffffffffffff03821115610a5057610a4f610b88565b5b828201905092915050565b6000610a6682610ac1565b9150610a7183610ac1565b9250817fffffffffffffffffffffffffffffffffffffffffffffffffffffffffffffffff0483118215151615610aaa57610aa9610b88565b5b828202905092915050565b60008115159050919050565b6000819050919050565b82818337600083830152505050565b60005b83811015610af8578082015181840152602081019050610add565b83811115610b07576000848401525b50505050565b60006002820490506001821680610b2557607f821691505b60208210811415610b3957610b38610bb7565b5b50919050565b6000610b4a82610ac1565b91507fffffffffffffffffffffffffffffffffffffffffffffffffffffffffffffffff821415610b7d57610b7c610b88565b5b600182019050919050565b7f4e487b7100000000000000000000000000000000000000000000000000000000600052601160045260246000fd5b7f4e487b7100000000000000000000000000000000000000000000000000000000600052602260045260246000fd5b7f4e487b7100000000000000000000000000000000000000000000000000000000600052604160045260246000fd5b6000601f19601f8301169050919050565b610c2f81610ac1565b8114610c3a57600080fd5b5056fea26469706673582212206a2e82ab3457a3bef73855695decc70a2d9111a5eb13db3d0d91f2d006723d1564736f6c63430008000033",
  "immutableReferences": {},
  "source": "pragma solidity ^0.8.0;\n\ncontract todolist{\n    uint256 taskcount;\n    struct Task{\n        uint256 id;\n        string taskname;\n        uint256 createdon;\n        uint256 deadline;\n        bool completed;\n    }\n    \n    mapping(uint =>Task) public tasks;\n    \n    \n    \nfunction createTask(string memory _taskname, uint256 _deadline ) public returns(bool){\n    taskcount++;\n    uint256 deadline = block.timestamp + (_deadline*( 1 days));\n    Task memory task ;\n    task.taskname = _taskname;\n    task.id = taskcount;\n    task.createdon = block.timestamp;\n    task.deadline = deadline;\n     tasks[taskcount] = task;\n     return true;\n}\n\nfunction tomarkcompleted(uint _id) public returns(bool){\n    Task memory _task = tasks[_id];\n    _task.completed = true;\n    tasks[_id] = _task;\n    return true;\n}\n\nfunction deletetask(uint _id) public returns(bool){\n  \n    delete tasks[_id];\n    return true;  \n}\n\n\nfunction updateDeadline(uint256 _id,uint256 _newdeadline ) public returns(bool){\n    Task memory task = tasks[_id];\n    uint256 _deadline = task.deadline + (_newdeadline*( 1 days));\n    task.deadline = _deadline;\n    tasks[_id] = task;\n    return true;\n\n}\n}",
  "sourcePath": "D:/Blockchain/Truffle Crowd Funding/contracts/ToDoList.sol",
  "compiler": {
    "name": "solc",
    "version": "0.8.0+commit.c7dfd78e.Emscripten.clang"
  },
  "schemaVersion": "3.4.1",
  "updatedAt": "2021-06-11T06:35:19.348Z",
  "networkType": "ethereum",
  "devdoc": {
    "kind": "dev",
    "methods": {},
    "version": 1
  },
  "userdoc": {
    "kind": "user",
    "methods": {},
    "version": 1
  }
}